:020000040800F2
:100000006008002001010008090100080B01000838
:100010000D0100080F010008110100080000000098
:1000200000000000000000000000000013010008B4
:10003000150100080000000017010008590600081B
:100040001B0100081B0100081B0100081B01000820
:100050001B0100081B0100081B0100081B01000810
:100060001B0100081B0100081B01000879010008A2
:1000700099010008B9010008D9010008F901000838
:1000800019020008390200081B0100081B010008C2
:100090001B0100081B0100081B0100081B010008D0
:1000A0001B0100081B0100081B0100081B010008C0
:1000B0001B0100081B0100081B0100081B010008B0
:1000C0001B0100081B0100081B0100081B010008A0
:1000D0001B010008790700081B0100081B0100082C
:1000E0001B0100081B0100081B010008DFF80CD0F1
:1000F00000F02EF800480047050C000860080020BA
:100100000648804706480047FEE7FEE7FEE7FEE7B1
:10011000FEE7FEE7FEE7FEE7FEE7FEE7690600080A
:10012000ED00000830B50B460146002020220124D6
:1001300009E021FA02F59D4205D303FA02F5491BB5
:1001400004FA02F52844151EA2F10102F1DC30BDCB
:10015000064C074D06E0E06840F0010394E8070014
:1001600098471034AC42F6D3FFF7C4FF6C0C00087C
:100170008C0C00087047000010B50548006800F0BE
:100180000F04034844602046FFF7F4FF10BD000051
:10019000000002407047000010B505480068C0F339
:1001A00003142001024948602046FFF7F3FF10BD09
:1001B000000002407047000010B505480068C0F319
:1001C00003242002024948602046FFF7F3FF10BDD8
:1001D000000002407047000010B505480068C0F3F9
:1001E00003342003024948602046FFF7F3FF10BDA7
:1001F000000002407047000010B505480068C0F3D9
:1002000003442004024948602046FFF7F3FF10BD75
:10021000000002407047000010B505480068C0F3B8
:1002200003542005024948602046FFF7F3FF10BD44
:10023000000002407047000010B505480068C0F398
:1002400003642006024948602046FFF7F3FF10BD13
:100250000000024010B50446204600F067FC10BDC7
:100260002DE9F0410246002500260020002300244D
:10027000002791F803C00CF00F0591F803C00CF0B3
:10028000100CBCF1000F03D091F802C04CEA050538
:1002900091F800C0BCF1000F31D0146800202BE0B1
:1002A0004FF0010C0CFA00F3B1F800C00CEA0306A1
:1002B0009E4220D183004FF00F0C0CFA03F7BC4391
:1002C00005FA03FC4CEA040491F803C0BCF1280FC2
:1002D00006D14FF0010C0CFA00FCC2F814C00AE081
:1002E00091F803C0BCF1480F05D14FF0010C0CFA96
:1002F00000FCC2F810C0401C0828D1D31460B1F82B
:1003000000C0BCF1FF0F34DD546800202EE000F186
:10031000080C4FF0010808FA0CF3B1F800C00CEA21
:1003200003069E4221D183004FF00F0C0CFA03F715
:10033000BC4305FA03FC4CEA040491F803C0BCF189
:10034000280F05D100F1080C08FA0CF8C2F8148047
:1003500091F803C0BCF1480F07D100F1080C4FF031
:10036000010808FA0CF8C2F81080401C0828CED307
:100370005460BDE8F08110B54FF4A06000F044F87F
:1003800000F002FC00F04AF84FF4E13000F09CF974
:10039000C82000F0E0FB10BD70B5002100230F2243
:1003A000C47804B3154C246804F4E064C4F5E06434
:1003B000210AC1F10403CA40447804FA03F18478A5
:1003C0001440214309010E4C0678A155047804F02D
:1003D0001F050124AC4005786D11AD0005F1E02545
:1003E000C5F8004109E0047804F01F050124AC4081
:1003F000044D0678761145F8264070BD0CED00E0FE
:1004000000E400E080E100E002490143024A11609B
:10041000704700000000FA050CED00E07047000096
:1004200029B1064A92690243044B9A6104E0034AE7
:1004300092698243014B9A617047000000100240AC
:1004400030B500210022002400232D4D6D6805F0F9
:100450000C0121B1042905D0082923D105E0294D3B
:10046000056022E0274D05601FE0254D6D6805F40D
:100470007012234D6D6805F48034022505EB92421D
:100480001CB9214D554305600BE01D4D6D6805F409
:1004900000351DB11C4D5543056002E0194D554313
:1004A000056002E0174D056000BF00BF144D6D6888
:1004B00005F0F0010909154D6B5C0568DD404560EC
:1004C0000F4D6D6805F4E061090A104D6B5C4568DD
:1004D000DD4085600A4D6D6805F46051C90A0B4D19
:1004E0006B5C4568DD40C560054D6D6805F44041B5
:1004F000890B074D6B5CC568B5FBF3F5056130BD35
:100500000010024000127A0000093D00080000209F
:100510001800002010B54C888B1D18554B885B1CAB
:100520009BB24B80934201DB00234B804B880C88AD
:10053000A34207D10B885B1C9BB20B80934201DB6B
:1005400000230B8010BD10B500F002F810BD0000B4
:100550000CB50020019000903348006840F48030D2
:100560003149086000BF3048006800F40030009056
:100570000198401C0190009818B90198B0F5A06F3F
:10058000F1D12948006800F4003010B1012000903A
:1005900001E0002000900098012843D12348006822
:1005A00040F01000214908600846006820F0030070
:1005B00008600846006840F0020008601A48406879
:1005C000194948600846406848600846406840F459
:1005D000806048600846406820F47C104860084607
:1005E000406840F4E81048600846006840F08070B9
:1005F000086000BF0C48006800F000700028F9D0C7
:100600000948406820F003000749486008464068F0
:1006100040F00200486000BF0348406800F00C0052
:100620000828F9D10CBD0000001002400020024053
:10063000042808D14FF0E021096941F004014FF08E
:10064000E022116107E04FF0E021096921F0040187
:100650004FF0E0221161704702480068401C0149D8
:10066000086070470000002010B51348006840F093
:1006700001001149086008464068104908400E49C9
:100680004860084600680E4908400B490860084663
:10069000006820F4802008600846406820F4FE00CE
:1006A00048604FF41F008860FFF74DFF4FF0006077
:1006B0000449086010BD0000001002400000FFF86F
:1006C000FFFFF6FE08ED00E010B586B004460121FC
:1006D00044F20400FFF7A4FE4FF40070ADF81400DC
:1006E00018208DF8170003208DF8160005A9204862
:1006F000FFF7B6FD4FF48060ADF8140004208DF8CC
:10070000170003208DF8160005A91948FFF7A8FD6A
:1007100025208DF8000003208DF801008DF80200DF
:1007200001208DF803006846FFF736FE0194002093
:10073000ADF80800ADF80A00ADF80C00ADF81000F7
:100740000C20ADF80E0001A90A4800F0AFF8012214
:1007500040F22551074800F084F84021054800F098
:1007600025F80121034800F039F806B010BD00005B
:10077000000801400038014010B540F225510948F9
:1007800000F045F868B140F22551064800F017F82E
:10079000044800F0F7F8C4B2202203492046FFF7CE
:1007A000B9FE10BD003801403400002001F4007291
:1007B000B2F5007F00D100BFCA430280704710B578
:1007C0000022002340F66A14A14200D100BF0A12A1
:1007D00001249440A3B2DC43048010BD21B182897E
:1007E00042F40052828104E082894DF6FF731A4080
:1007F0008281704702460020B1F5007F00D100BF22
:1008000013880B400BB1012000E00020704770B549
:100810000246002400230025002040F66A16B1425B
:1008200000D100BFC1F3421501F01F03012606FAF3
:1008300003F3012D02D19689334006E0022D02D147
:10084000168A334001E0968A33400C12012606FADC
:1008500004F41688344013B10CB1012000E00020EC
:1008600070BDF0B50346002400260025002040F6A8
:100870006A17B94200D100BF1846C1F3421401F013
:100880001F06012707FA06F5012C01D10C3004E000
:10089000022C01D1103000E014301AB107682F4348
:1008A000076002E00768AF430760F0BD2DE9F0473D
:1008B00086B005460E460024A24600BFA14600278A
:1008C000B08900B100BF2F462C8A4CF6FF7004405F
:1008D000F08804432C82AC894EF6F3100440B088B3
:1008E00031890843718908430443AC81AC8A4FF6CF
:1008F000FF400440B0890443AC8201A8FFF7A0FD8B
:100900001F48874202D1DDF810A001E0DDF80CA0FD
:10091000A88900F4004040B10AEBCA0000EB0A10BD
:1009200031684900B0FBF1F807E00AEBCA0000EBC0
:100930000A1031688900B0FBF1F86420B8FBF0F0D0
:1009400004012009642101FB1089A88900F40040FA
:1009500040B1322000EBC900B0FBF1F000F007001D
:10096000044308E0322000EB09106421B0FBF1F0F1
:1009700000F00F0004432C8106B0BDE8F0870000B2
:100980000038014001468888C0F308007047C1F371
:1009900008028280704700000FB4054B10B503A910
:1009A000044A029800F018F810BC5DF814FB00002F
:1009B000650B00083000002002E008C8121F08C1C3
:1009C000002AFAD170477047002001E001C1121FD0
:1009D000002AFBD1704700002DE9FF4F89B09B46EC
:1009E0000446002506E025280BD05A460B9990476F
:1009F000641C6D1C20780028F5D10DB02846BDE898
:100A0000F08F0027B8460122474900E0074314F859
:100A1000013F203B02FA03F00842F7D120782E284C
:100A200019D114F8010F47F004072A280ED06FF0EF
:100A30002F022078A0F1300109290CD808EB880199
:100A400002EB410100EB0108641CF2E70A98641C08
:100A500050F8048B0A9020780028CED0642808D063
:100A6000692806D075281ED05A460B9990476D1CF0
:100A700058E00A994FF00A0901C90A91002802DAE0
:100A800040422D2102E0390504D52B218DF820109C
:100A9000012103E0F90704D02021F7E78A4608AED8
:100AA0000DE00021FAE70A994FF00A0901C90A91FD
:100AB000F7E74946FFF736FB303106F8011D0028FD
:100AC000F7D1ADEB060000F12009780701D44FF013
:100AD0000108C84502DDA8EB090000E000208046BF
:100AE000002706E008A85A46C05D0B9990476D1C88
:100AF0007F1C5745F6DB04E030205A460B9990479F
:100B00006D1CB8F10001A8F10108F5DC05E016F84C
:100B1000010B5A460B9990476D1CB9F10001A9F1E0
:100B20000109F4DC641C65E70928010010B50446DE
:100B30004FF47A7104FB01F000F001F810BD30B5FC
:100B4000044600F077F8054600BF00F073F8401B3C
:100B5000A042FAD330BD10B504462046FFF77AFB19
:100B600010BD000070B504460D46E1B20548FFF720
:100B70000EFF00BF40210348FFF73CFE0028F9D0DC
:100B8000204670BD0038014070B5194800684FF428
:100B9000FA52B0FBF2F1481EB0F1807F00D31BE0A7
:100BA000481E4FF0E022506150170F22002804DB4E
:100BB00013071C0E0F4B1C5406E013071D0E0E4BA3
:100BC00000F00F04241F1D5500BF00204FF0E0224D
:100BD00090610720106100BF6FF00400FFF728FD4F
:100BE000034800680549B0FBF1F00549086070BD95
:100BF0001C00002000E400E018ED00E000127A0084
:100C000004000020FFF7B7FB0CE000F013F80546E6
:100C10000120FFF7A0FF00F00DF80446611B02A0C1
:100C2000FFF7BAFEF1E7000074696D653D25640ABF
:100C30000900000010B500BF0A4801684FF0E0202D
:100C40008269084800688142F6D107480068B2FB13
:100C5000F0F3481C00EB4004C4EBC010C3EBC00031
:100C600010BD000000000020040000208C0C0008D3
:100C70000000002034000000B8090008C00C000883
:100C8000340000202C080000C80900080000000003
:100C90000000000000000000010203040102030440
:100CA000060708090204060800A24A040000000022
:100CB000000000000102030406070809000000000C
:04000005080000ED02
:00000001FF
